:020000040800F2
:1000000018300020450100088D210008B91A0008A9
:1000100089210008CF050008F52B0008000000002A
:10002000000000000000000000000000872400081D
:1000300011080008000000007D220008712500085A
:100040005F0100085F0100085F0100085F01000810
:100050005F0100085F0100085F010008CD10000883
:100060005F0100085F01000811110008B5070008D2
:100070005F0100085F0100085F0100085F010008E0
:100080005F0100085F010008E50100085F0100084A
:100090005F0100085F0100085F0100085F010008C0
:1000A0005F0100085F0100085F0100085F010008B0
:1000B0006D260008712600085F0100085F01000836
:1000C0005F0100085F0100085F010008CD23000800
:1000D0003D240008E528000865290008D929000802
:1000E000851000085F0100085F0100085F0100083B
:1000F0005F0100085F0100085F0100085F01000860
:100100005F0100085F0100085F0100085F0100084F
:100110005F0100085F0100085F0100085F0100083F
:100120005F0100085F0100085F0100085F0100082F
:10013000DFF80CD000F018F800480047C151000863
:10014000183000200648804706480047FEE7FEE7D3
:10015000FEE7FEE7FEE7FEE7FEE7FEE7FEE7FEE777
:100160000D26000831010008064C074D06E0E06846
:1001700040F0010394E8070098471034AC42F6D3EE
:10018000FFF7DAFFB4800408D480040870B58C1837
:1001900010F8015B15F0070301D110F8013B2A119B
:1001A00006D110F8012B03E010F8016B01F8016B88
:1001B0005B1EF9D12B0705D40023521E0DD401F884
:1001C000013BFAE710F8013BCB1A921C03E013F84D
:1001D000015B01F8015B521EF9D5A142D8D3002082
:1001E00070BD000010B54FF40871354800F02EF9CD
:1001F000002853D04FF40871314800F0C5F830485A
:1002000000F020F92F4908802F4800882F490988DD
:1002100088422ADA2B4800882D4909682A4A128820
:1002200021F8120028480088401C274908802948E6
:10023000407C401C274948740846407C032814DB56
:100240000846007C401C08740846007C00F00F0043
:1002500008740846007C0A46115C072301221848EE
:1002600000F044F900201B494874174800886028B2
:1002700014DB1948007840F001001749087000208D
:10028000114908801349087448740846007C0A46DE
:10029000115C072301220A4800F028F94FF4087185
:1002A0000E4800F0D3F848B14FF408710B4800F045
:1002B0006BF80A4800F0C6F80949088010BD000034
:1002C000002401402E0100202A01002028010020E6
:1002D00024010020940000202C010020002801406F
:1002E0003A01002000B587B001214FF4047001F0FD
:1002F000E3FF0120ADF8180000208DF81B0006A9CF
:100300001F4801F0DFFA1F4800F064F80020019058
:1003100001208DF808008DF809004FF4602003904B
:100320000020049001208DF8140001A9154800F068
:10033000B5F84FF4404001F0A3FF072301220D213F
:10034000104800F0D3F801210E4800F022F80D48C3
:1003500000F028F900BF0B4800F08AF80028FAD115
:10036000084800F02FF900BF064800F061F80028A7
:10037000FAD10121034800F01AF907B000BD0000CE
:10038000001001400024014000220A12D343036000
:10039000704721B1826842F00102826003E0826806
:1003A00022F001028260704710B5064806490860D5
:1003B0004FF4A07005490880002005490880FFF728
:1003C00091FF10BD68290020240100202801002091
:1003D0002A01002010B504461248844208D10121A8
:1003E000401501F079FF0021601501F075FF17E05D
:1003F0000D48844208D10121001501F06DFF002154
:10040000201501F069FF0BE00848844208D1012162
:10041000C80301F061FF00214FF4004001F05CFFD0
:1004200010BD00000024014000280140003C0140B4
:10043000014600208A6802F004020AB1012000E0AF
:10044000002070470146C86C80B2704770B5024604
:100450000020002300240B125568CEB205EA0604E2
:1004600015681D4015B10CB1012000E0002070BDE1
:10047000014600208A6802F008020AB1012000E06B
:100480000020704710B50023CBB21AB144681C435A
:10049000446002E044689C43446010BD30B50246AD
:1004A0000020002350680F4C20400D790C6844EA6E
:1004B00005242043506090680B4C2040D1E9025441
:1004C0002C434D7944EA450420439060D06A20F4DF
:1004D00070000C7C641EE4B2234340EA0350D062F7
:1004E00030BD0000FFFEF0FFFDF7F1FFF0B5044660
:1004F0000D4600200021092D11DDE068A5F10A0656
:1005000006EB4607072606FA07F18843A5F10A0617
:1005100006EB460603FA06F10843E0600CE02069AA
:1005200005EB4507072606FA07F1884305EB450664
:1005300003FA06F108432061072A0FDA606B561EA2
:1005400006EB86071F2606FA07F18843561E06EBC0
:10055000860605FA06F10843606322E00D2A0FDAE9
:10056000206BD61F06EB86071F2606FA07F1884385
:10057000D61F06EB860605FA06F10843206310E055
:10058000E06AA2F10D0606EB86071F2606FA07F1C0
:100590008843A2F10D0606EB860605FA06F108432C
:1005A000E062F0BD816841F008018160704721B1CF
:1005B000826842F4A002826003E0826822F4A00212
:1005C00082607047816841F004018160704700BF1C
:1005D000FEE7000070B5FF253548008800280DDDD6
:1005E00000BF002408E03348005D00F00C000C2838
:1005F00000D12546601CC4B2032CF4DBA5B9102140
:100600002D4801F042FA80212B4801F03EFA1021DA
:100610002A4801F03AFA2021284801F036FA202130
:10062000254801F030FA41E0012D14D12021224863
:1006300001F02BFA8021204801F027FA10211F48F1
:1006400001F021FA20211D4801F01FFA10211A485B
:1006500001F019FA2AE0022D14D12021164801F0E8
:1006600014FA1021144801F010FA1021134801F077
:100670000CFA2021114801F006FA80210E4801F001
:1006800002FA13E010210D4801F0FDF920210B487A
:1006900001F0F9F92021084801F0F7F91021064886
:1006A00001F0F3F98021044801F0EFF970BD00007A
:1006B000680000206C000020000C01400010014088
:1006C00070B5FF253848408800280DDD00BF0324A1
:1006D00008E03648005D00F00C000C2800D12546EB
:1006E000601CC4B2062CF4DB032D16D14FF400714C
:1006F0002F4801F0CAF94FF480712D4801F0C5F977
:1007000001212B4801F0C1F90221294801F0BDF96E
:100710004021274801F0B7F945E0042D14D14021CC
:10072000234801F0B2F9A901214801F0AEF90121F5
:100730001F4801F0A8F902211D4801F0A6F9E901BE
:100740001B4801F0A0F92EE0052D16D140211848D4
:1007500001F09BF94FF40071154801F096F9012161
:10076000134801F092F90221114801F08CF94FF47D
:1007700080710F4801F087F915E001210C4801F064
:1007800082F902210A4801F07EF94021084801F06F
:100790007CF94FF40071064801F077F94FF480714D
:1007A000034801F072F970BD680000206C00002061
:1007B000000C014010B501200A4908700A48007871
:1007C00040F0010008490870012000F013F80021F2
:1007D0000648FFF7DEFD0648C06880F008000449BF
:1007E000C86010BD400100202C0100200024014001
:1007F0000010014000F0805111B10349086001E090
:1008000002494860704700000404024000000240B2
:10081000704708B50021009102E00099491C009141
:1008200000EBC00101EB0011009AB2EB411FF4D3C1
:1008300008BD000001B50849009808604FF0E020AD
:10084000006940F001004FF0E021086100BF02485C
:1008500000680028FBD108BD2800002000BF074821
:10086000006800F4E06006490843001D0349086081
:10087000BFF34F8F00BF00BFFEE700000CED00E0AC
:100880000000FA052DE9F0470746884691469A464A
:100890004FF480723349002000F096FC00250026BA
:1008A000304840780D2802DD0D202E494870002484
:1008B00049E02C480078672800D048E004EBC401E8
:1008C0004900491D274A505C00EBD0714910A0EB4C
:1008D0004101494535D104EBC4004000801D11465B
:1008E0000E5C360204EBC4004000C01D085C0644E8
:1008F000360204EBC40040000830085C06443602AF
:1009000004EBC40040000930085C064404EBC4005A
:10091000400012300D5C2D0204EBC4004000133087
:10092000085C05442D0204EBC40040001430085C50
:1009300005442D0204EBC40040001530085C05445A
:1009400005E0601C84B207484078A042B1DC00BFDB
:1009500036B11FFA88F1B8B253462A4604F0CAFAF3
:10096000BDE8F087C803002010B5044624B9202153
:10097000134801F08AF822E0012C04D1102110481C
:1009800001F083F81BE0022C04D180210C4801F017
:100990007CF814E0032C04D14021094801F075F8DB
:1009A0000DE0042C04D1E101054801F06EF806E0E9
:1009B000052C04D14FF48071014801F066F810BD98
:1009C000000C014010B5044624B92021134801F061
:1009D0005AF822E0012C04D11021104801F053F8FC
:1009E0001BE0022C04D180210C4801F04CF814E0EB
:1009F000032C04D14021094801F045F80DE0042CF6
:100A000004D1E101054801F03EF806E0052C04D1CF
:100A10004FF48071014801F036F810BD000C014020
:100A200070B5C448007800F0F000D8B9C24800683A
:100A3000C24908601F20BF4908700846007800F0CE
:100A40000F040120BE49087048708870FFF7C2FD8E
:100A50000020FFF7B7FF0120FFF7B4FF0220FFF7E8
:100A6000B1FF65E1B348007800F0F000102821D113
:100A7000B1480068B1490968401AC828F1D3AE48A6
:100A80000068AE490860AB48007800F00F04AD483C
:100A9000018DAD48808980308142E2DD00240C2048
:100AA000A749085504F12000A24908702046FFF725
:100AB0005BFF3DE19F48007800F0F000202831D135
:100AC0009D4800689D490968401AB0F5967FC8D3D3
:100AD00099480068994908609648007800F00F042A
:100AE0009848018D984880898030814209DA0C202D
:100AF0009349085504F130008E490870FFF76AFDEC
:100B000016E100208E490855022C02DB8949087045
:100B10000EE104F1210087490870611CC8B2FFF79B
:100B200023FF05E18348007800F0F000302824D14D
:100B30008148006881490968401AB0F5FA6F90D37E
:100B40007D4800687D4908607A48007800F00F040D
:100B50007C48018D7C4880898030814207DD0C20F3
:100B60007749085504F1400072490870E0E0002020
:100B7000734908556F490870DAE06E48007800F054
:100B8000F00040283ED16C4800686C490968401A62
:100B900064288ED368480068684908606548007812
:100BA00000F00F046748018D6748808960308142FA
:100BB0001DDA66480078401C6449087008460078D1
:100BC00003289DDD03205E490870487088700C2062
:100BD000085504F15000574908700020FFF7F2FE55
:100BE0000120FFF7EFFE0220FFF7ECFEA0E002205D
:100BF00053490870487088700C20085500205349EC
:100C0000087095E04B48007800F0F00050282ED195
:100C10004948006849490968401A3228A6D346481D
:100C20000068464908604348007800F00F044548D2
:100C3000018D454880898030814279DD0C20404912
:100C4000085504F160003B49087000250CE03C4861
:100C5000405D032806D12846FFF786FE0420384968
:100C6000485503E0681CC5B2032DF0DB60E0314855
:100C7000007800F0F00060285AD12F4800682F4912
:100C80000968401A322853D32B4800682B49086062
:100C90002848007800F00F042A48018D2A488089EE
:100CA0006030814219DA002514E02548405D0428AF
:100CB0000ED12C46062022490870487088700C20FE
:100CC000085504F130001B490870FFF783FC03E06E
:100CD000681CC5B2032DE8DB2AE0002508E01848AF
:100CE000405D042802D1052015494855681CC5B24D
:100CF000032DF4DB00250CE01148405D032806D1EC
:100D00002846FFF731FE04200D49485503E0681CD2
:100D1000C5B2032DF0DB00BF032D09DB0C20084911
:100D200008552046FFF74EFE04F1400001490870C7
:100D300070BD0000720000202C0000204800002040
:100D40006C00002068290020E82B0020740000209F
:100D500070B5C548007800F0F000D8B9C348006805
:100D6000C34908601F20C04908700846007800F099
:100D70000F040120BF49C87008714871FFF7A0FC3B
:100D80000320FFF71FFE0420FFF71CFE0520FFF7DE
:100D900019FE67E1B448007800F0F000102821D176
:100DA000B2480068B2490968401AC828F1D3AF4870
:100DB0000068AF490860AC48007800F00F04AE4806
:100DC000C18DAE48C08980308142E2DD03240C2011
:100DD000A849085504F12000A34908702046FFF7F0
:100DE000C3FD3FE1A048007800F0F000202832D198
:100DF0009E4800689E490968401AB0F5967FC8D39E
:100E00009A4800689A4908609748007800F00F04F3
:100E10009948C18D9948C0898030814209DA0C20F7
:100E20009449085504F130008F490870FFF748FCD9
:100E300018E100208F490855052C03DB03208A495F
:100E400008700FE104F1210087490870611CC8B2E5
:100E5000FFF78AFD06E18448007800F0F0003028B2
:100E600025D18248006882490968401AB0F5FA6FB6
:100E70008FD37E4800687E4908607B48007800F088
:100E80000F047D48C18D7D48C0898030814207DDD7
:100E90000C207849085504F1400073490870E1E0DE
:100EA00000207449085503206F490870DAE06E4845
:100EB000007800F0F00040283ED16C4800686C4992
:100EC0000968401A64288CD368480068684908603B
:100ED0006548007800F00F046748C18D6748C089F5
:100EE000603081421DDA66480078401C6449087011
:100EF0000846007803289BDD03205E49C87008710E
:100F000048710C20085504F150005749087003201F
:100F1000FFF758FD0420FFF755FD0520FFF752FDB0
:100F2000A0E002205349C870087148710C20085590
:100F300000205349087095E04B48007800F0F0001D
:100F400050282ED14948006849490968401A32287A
:100F5000A5D346480068464908604348007800F039
:100F60000F044548C18D4548C0898030814279DDF4
:100F70000C204049085504F160003B4908700325E6
:100F80000CE03C48405D032806D12846FFF7ECFC06
:100F900004203849485503E0681CC5B2062DF0DB33
:100FA00060E03148007800F0F00060285AD12F4806
:100FB00000682F490968401A322853D32B4800682B
:100FC0002B4908602848007800F00F042A48C18D9A
:100FD0002A48C0896030814219DA032514E0254887
:100FE000405D04280ED12C4606202249C8700871A5
:100FF00048710C20085504F130001B490870FFF7B8
:101000005FFB03E0681CC5B2062DE8DB2AE0032580
:1010100008E01848405D042802D1052015494855CC
:10102000681CC5B2062DF4DB03250CE01148405DB9
:10103000032806D12846FFF797FC04200D494855A0
:1010400003E0681CC5B2062DF0DB00BF062D09DBEE
:101050000C20084908552046FFF7B4FC04F1400075
:101060000149087070BD0000730000202C000020B2
:101070004C0000206C00002068290020E82B002094
:101080007500002010B54FF4805000F055F8B8B14D
:101090004FF4805000F04AF80A48C06884B204F067
:1010A000080020B90821074800F0EFFC03E0082100
:1010B000044800F0E8FC04480088401C024908800D
:1010C00010BD0000001001407A01002010B5022080
:1010D00000F032F8B0B1022000F028F80A48C068E9
:1010E00084B204F0080020B90821074800F0CDFCC4
:1010F00003E00821044800F0C6FC04480088401CB6
:101100000249088010BD000000100140720100205B
:1011100010B5102000F010F828B101200249087025
:10112000102000F003F810BD5800002001490860AD
:101130007047000014040140014600200022074BC4
:101140001B6803EA0102054B14331B680B4013B103
:101150000AB1012000E000207047000000040140B7
:1011600010B50446012C04D14103054800F08BFC66
:1011700004E04FF40051024800F087FC10BD00006D
:101180000010014010B500BF0120FFF7E9FF0A2061
:1011900003F0A8FE052000F005F90A490870552063
:1011A00000F000F9074908700A2003F09BFE0020B8
:1011B000FFF7D6FF0348007800F001000028E3D1D4
:1011C00010BD0000B80100202DE9F04704460D468F
:1011D0001646C4F30747C4F3072804F0FF090120AB
:1011E000FFF7BEFF4FF40051134800F04CFC032002
:1011F00000F0D8F811490870384600F0D3F80F49CC
:101200000870404600F0CEF80C490870484600F0DF
:10121000C9F80A49087005E0552000F0C3F82870A5
:101220006D1C761E002EF7D1022003F05BFE00201D
:10123000FFF796FFBDE8F08700100140B8010020DD
:101240002DE9F0410446C4F30745C4F30726E7B28D
:101250000120FFF785FF062000F0A4F8124908706E
:10126000022003F03FFE0020FFF77AFF0120FFF786
:1012700077FFD82000F096F80B490870284600F058
:1012800091F809490870304600F08CF8064908705A
:10129000384600F087F8044908700020FFF760FF27
:1012A000FFF770FFBDE8F081B80100202DE9F041A3
:1012B0000446C4F30745C4F30726E7B20120FFF74D
:1012C0004FFF062000F06EF812490870022003F06C
:1012D00009FE0020FFF744FF0120FFF741FF202017
:1012E00000F060F80B490870284600F05BF80949E7
:1012F0000870304600F056F806490870384600F08D
:1013000051F8044908700020FFF72AFFFFF73AFF61
:10131000BDE8F081B80100202DE9F04704460D46F4
:101320001646C4F30747C4F3072804F0FF09012059
:10133000FFF716FF062000F035F819490870022063
:1013400003F0D0FD0020FFF70BFF0120FFF708FF9F
:10135000022000F027F812490870384600F022F801
:101360000F490870404600F01DF80D4908704846C6
:1013700000F018F80A49087006E0287800F012F822
:10138000074908706D1C761E002EF6D1022003F06E
:10139000A9FD0020FFF7E4FEFFF7F4FEBDE8F087AB
:1013A000B801002070B504462146002001F08003FA
:1013B000002B04DD4FF40045914E356004E04FF4FE
:1013C00000458F4E361D35604D06290E4506280E08
:1013D0004FF400558A4E3560894D083D2D6805F45F
:1013E0008042002A02DD451CE8B200E002464FF4CC
:1013F0000055834E361D356001F08003002B03DD60
:10140000AD00361F356004E04FF400457C4E361DBC
:1014100035604D06290E4506280E4FF40055784ECE
:101420003560774D083D2D6805F48042002A02DDC5
:10143000451CE8B200E002464FF40055704E361DE0
:10144000356001F08003002B03DDAD00361F3560F1
:1014500004E04FF400456A4E361D35604D06290EF6
:101460004506280E4FF40055654E3560644D083D25
:101470002D6805F48042002A02DD451CE8B200E038
:1014800002464FF400555E4E361D356001F0800374
:10149000002B03DDAD00361F356004E04FF400453E
:1014A000574E361D35604D06290E4506280E4FF461
:1014B0000055534E3560524D083D2D6805F480426D
:1014C000002A02DD451CE8B200E002464FF4005558
:1014D0004B4E361D356001F08003002B03DDAD005F
:1014E000361F356004E04FF40045454E361D35602B
:1014F0004D06290E4506280E4FF40055404E356026
:101500003F4D083D2D6805F48042002A02DD451C50
:10151000E8B200E002464FF40055394E361D356002
:1015200001F08003002B03DDAD00361F356004E0C1
:101530004FF40045324E361D35604D06290E4506E6
:10154000280E4FF400552E4E35602D4D083D2D6868
:1015500005F48042002A02DD451CE8B200E00246A4
:101560004FF40055264E361D356001F08003002BE8
:1015700003DDAD00361F356004E04FF40045204E1A
:10158000361D35604D06290E4506280E4FF40055D0
:101590001B4E35601A4D083D2D6805F48042002A27
:1015A00002DD451CE8B200E002464FF40055144E3F
:1015B000361D356001F08003002B03DDAD00361FC2
:1015C000356004E04FF400450D4E361D35604D0684
:1015D000290E4506280E4FF40055094E3560084D7A
:1015E000083D2D6805F48042002A02DD451CE8B262
:1015F00000E002464FF40055014E361D356070BDC7
:10160000100C014010B50246104600F08001002980
:1016100004DD4FF40043574C236004E04FF40043D3
:10162000544C241D23604FF40053524C2360430656
:10163000180E00F080016314241D2360002903DDCF
:101640009B00241F236004E04FF40043494C241DF9
:1016500023604FF40053474C23604306180E00F0FC
:1016600080016314241D2360002903DD9B00241FD7
:10167000236004E04FF400433E4C241D23604FF4EC
:1016800000533C4C23604306180E00F080016314A5
:10169000241D2360002903DD9B00241F236004E038
:1016A0004FF40043334C241D23604FF40053314C5E
:1016B00023604306180E00F080016314241D23608C
:1016C000002903DD9B00241F236004E04FF4004346
:1016D000284C241D23604FF40053264C23604306FE
:1016E000180E00F080016314241D2360002903DD1F
:1016F0009B00241F236004E04FF400431D4C241D75
:1017000023604FF400531B4C23604306180E00F077
:1017100080016314241D2360002903DD9B00241F26
:10172000236004E04FF40043124C241D23604FF467
:101730000053104C23604306180E00F08001631420
:10174000241D2360002903DD9B00241F236004E087
:101750004FF40043074C241D23604FF40053054C05
:1017600023604306180E00F080016314241D2360DB
:1017700010BD0000100C014030B5034618464FF66E
:10178000FF7404EA002000F400424D4C2468C4F3C6
:101790000E0111434A4C21606414494D2D1D2C60EB
:1017A0004FF6FF7404EA400000F400426C142D1D53
:1017B0002C60434C2468C4F30E011143404C21605B
:1017C00064142D1F2C604FF6FF7404EA400000F4EF
:1017D00000426C142D1D2C60394C2468C4F30E019A
:1017E0001143374C216064142D1F2C604FF6FF7499
:1017F00004EA400000F400426C142D1D2C60304CB3
:101800002468C4F30E0111432D4C216064142D1F74
:101810002C604FF6FF7404EA400000F400426C14A0
:101820002D1D2C60264C2468C4F30E011143244C5A
:10183000216064142D1F2C604FF6FF7404EA4000F1
:1018400000F400426C142D1D2C601D4C2468C4F360
:101850000E0111431A4C216064142D1F2C604FF6A9
:10186000FF7404EA400000F400426C142D1D2C604B
:10187000134C2468C4F30E011143114C216064140D
:101880002D1F2C604FF6FF7404EA400000F4004264
:101890006C142D1D2C600A4C2468C4F30E011143F6
:1018A000074C216064142D1F2C604FF6FF7404EA6E
:1018B000400000F400426C142D1D2C6030BD00006F
:1018C0000C0C01402DE9F0410246002500260020C5
:1018D00000230024002791F803C00CF00F0591F8B5
:1018E00003C00CF0100CBCF1000F03D091F802C043
:1018F0004CEA050591F800C0BCF1000F31D0146826
:1019000000202BE04FF0010C0CFA00F3B1F800C0FE
:101910000CEA03069E4220D183004FF00F0C0CFA14
:1019200003F7BC4305FA03FC4CEA040491F803C036
:10193000BCF1280F06D14FF0010C0CFA00FCC2F8E4
:1019400014C00AE091F803C0BCF1480F05D14FF074
:10195000010C0CFA00FCC2F810C0401C0828D1D3BE
:101960001460B1F800C0BCF1FF0F34DD54680020F2
:101970002EE000F1080C4FF0010808FA0CF3B1F862
:1019800000C00CEA03069E4221D183004FF00F0CE9
:101990000CFA03F7BC4305FA03FC4CEA040491F883
:1019A00003C0BCF1280F05D100F1080C08FA0CF8AF
:1019B000C2F8148091F803C0BCF1480F07D100F1C0
:1019C000080C4FF0010808FA0CF8C2F81080401C0F
:1019D0000828CED35460BDE8F081C2684A40C26096
:1019E00070470000F0B50A460023002400210025BE
:1019F00000F00046B6F1004F02D11D4EF16901E042
:101A00001B4E7168C0F3034583B200F44016B6F56F
:101A1000401F08D121F07061154E766826F070667F
:101A2000134F7E6012E000F48016B6F5801F06D1D9
:101A3000032606FA05F4A14341F0706106E0460D65
:101A4000360103FA06F6B14341F0706122B1460D4A
:101A5000360103FA06F6314300F00046B6F1004FB6
:101A600002D1034EF16101E0014E7160F0BD000052
:101A7000000001400246002093680B400BB101209A
:101A800000E000207047416170470161704700002D
:101A900000200AE000EB4001891C054A32F81110D1
:101AA000044A22F81010411CC8B20828F2DB704723
:101AB00068290020E82B002000BFFEE770B505462E
:101AC000F026EF2340F23F120021084600F0B0FA62
:101AD00000F0D8FA09E0002404E0284600F066FA95
:101AE000601C84B2B4F5A07FF7DB301EA6F10101C3
:101AF0008EB2F0D170BD70B504460D462946204621
:101B000000F032FA2C2000F06FFA002000F04EFABC
:101B100070BD2DE9F04704460D4616461F46DDF818
:101B200020803B4632462946204600F081FA00F0EC
:101B3000A9FA781B401C311B491C00FB01F902E08B
:101B4000404600F033FAB9F10000A9F10109F7D1DC
:101B5000F0234FF4A0720021084600F069FABDE8B6
:101B6000F087000010B54FF480517C48FFF78BFFE1
:101B70003220FEF74EFE4FF400717948FFF785FFE3
:101B800040217748FFF781FF4FF480517448FFF7F9
:101B90007CFF04217348FFF778FF3220FEF739FEFF
:101BA000E22000F021FA232000F000FA022000F0E9
:101BB000FDF9042000F0FAF9E02000F015FA012008
:101BC00000F0F4F90520FEF724FEE02000F00CFA06
:101BD000032000F0EBF90520FEF71BFE012000F0CA
:101BE00003FA0520FEF715FEE62000F0FDF90220BD
:101BF00000F0DCF9932000F0D9F9E02000F0D6F9EC
:101C0000B02000F0F1F9202000F0D0F9002000F021
:101C1000CDF9012000F0CAF93F2000F0C7F90020FB
:101C200000F0C4F9EF2000F0C1F9002000F0BEF987
:101C3000B42000F0D9F9012000F0B8F9A52000F097
:101C4000B5F9002000F0B2F9462000F0AFF901200C
:101C500000F0ACF9002000F0A9F9002000F0A6F98E
:101C6000002000F0A3F9B62000F0BEF9012000F03A
:101C70009DF90C2000F09AF9002000F097F90D2052
:101C800000F094F9012000F091F9002000F08EF9A5
:101C9000002000F08BF92A2000F0A6F9002000F0C7
:101CA00085F9002000F082F9012000F07FF93F2043
:101CB00000F07CF92B2000F097F9002000F076F975
:101CC000002000F073F9002000F070F9EF2000F020
:101CD0006DF9BA2000F088F9052000F067F9B82006
:101CE00000F082F9072000F061F9012000F05EF9B0
:101CF000362000F079F9232000F058F9F02000F0A8
:101D000073F9032000F052F90520FEF782FD292027
:101D100000F06AF9BE2000F067F9062000F046F9ED
:101D2000802000F043F9012000F040F9F02000F09D
:101D30003DF9002000F03AF9002000F037F9D020FA
:101D400000F052F90D2000F031F90520FEF761FD99
:101D50004FF480510148FFF798FE10BD000C014080
:101D6000001001400014014010B520217B48FFF70E
:101D70008AFE3220FEF74DFD4FF400717848FFF7E0
:101D800084FE40217648FFF780FE4FF4805174486E
:101D9000FFF77BFE04217348FFF777FE3220FEF742
:101DA00038FDE22000F020F9232000F0FFF80220A7
:101DB00000F0FCF8042000F0F9F8E02000F014F93D
:101DC000012000F0F3F80520FEF723FDE02000F0ED
:101DD0000BF9032000F0EAF80520FEF71AFD0120B8
:101DE00000F002F90520FEF714FDE62000F0FCF8F3
:101DF000022000F0DBF8932000F0D8F8E02000F09B
:101E0000D5F8B02000F0F0F8202000F0CFF8002046
:101E100000F0CCF8012000F0C9F83F2000F0C6F82F
:101E2000002000F0C3F8EF2000F0C0F8002000F020
:101E3000BDF8B42000F0D8F8012000F0B7F8A520D4
:101E400000F0B4F8002000F0B1F8462000F0AEF841
:101E5000012000F0ABF8002000F0A8F8002000F00E
:101E6000A5F8002000F0A2F8B62000F0BDF801208F
:101E700000F09CF80C2000F099F8002000F096F893
:101E80000D2000F093F8012000F090F8002000F001
:101E90008DF8002000F08AF82A2000F0A5F8002034
:101EA00000F084F8002000F081F8012000F07EF8B6
:101EB0003F2000F07BF82B2000F096F8002000F087
:101EC00075F8002000F072F8002000F06FF8EF20A5
:101ED00000F06CF8BA2000F087F8052000F066F8F2
:101EE000B82000F081F8072000F060F8012000F031
:101EF0005DF8362000F078F8302000F057F8F02038
:101F000000F072F8032000F051F80520FEF781FC84
:101F1000292000F069F8BE2000F066F8062000F0E5
:101F200045F8802000F042F8012000F03FF8F02052
:101F300000F03CF8002000F039F8002000F036F8FE
:101F4000D02000F051F80D2000F030F80520FEF709
:101F500060FC20210148FFF798FD10BD00080140FA
:101F6000001001400014014070B504460D462A20BF
:101F700000F03AF8201200F019F8E0B200F016F87C
:101F8000012000F013F83F2000F010F82B2000F0A3
:101F90002BF8281200F00AF8E8B200F007F8002049
:101FA00000F004F8EF2000F001F870BD70B50446B1
:101FB0002512E6B280200A4948612846FFF722FB35
:101FC0003046FFF71FFB802005490861402008616B
:101FD0000420044908600860091F086070BD000003
:101FE000001001401414014070B504462512E6B2F9
:101FF00080210D48FFF747FD2846FFF7BDFB30461F
:10200000FFF7BAFB80210848FFF73FFD4021064853
:10201000FFF739FD04210548FFF735FD042103488A
:10202000FFF733FD70BD00000010014000140140B7
:102030002DE9F04104460D4616461F462A20FFF7BB
:10204000D3FFC4F30F20FFF7B1FFE0B2FFF7AEFFFD
:10205000C6F30F20FFF7AAFFF0B2FFF7A7FF2B2070
:10206000FFF7C2FFC5F30F20FFF7A0FFE8B2FFF7AD
:102070009DFFC7F30F20FFF799FFF8B2FFF796FF18
:10208000BDE8F08110B52C20FFF7AEFF10BD0000B9
:1020900008B50121084600F00FF901213548FFF786
:1020A000A1FC01213C2000F007F910208DF803006D
:1020B00003208DF8020048F2E010ADF800006946F8
:1020C0002D48FFF7FFFB4FF2F330ADF800006946F3
:1020D0002A48FFF7F7FB42F2F070ADF800006946BE
:1020E0002748FFF7EFFB0420ADF8000069462548BC
:1020F000FFF7E8FB04208DF8030003208DF80200B1
:102100001020ADF8000069461B48FFF7DBFB4FF4D9
:102110008040ADF8000069461848FFF7D3FB40F651
:102120000F10ADF8000069461548FFF7CBFB002003
:102130008DF8030003208DF802000F20ADF8000099
:1021400069460D48FFF7BEFB0F20ADF80000694659
:102150000B48FFF7B7FB28208DF8030003208DF80C
:102160000200C002ADF8000069460348FFF7AAFB71
:1021700008BD00000002300000080140000C0140D2
:10218000001001400014014000BFFEE7704708B591
:1021900025208DF8000001208DF8010000208DF829
:1021A000020001208DF80300684600F02FF8262079
:1021B0008DF8000001208DF8010000208DF802004C
:1021C00001208DF80300684600F020F827208DF8E4
:1021D000000001208DF8010000208DF80200012090
:1021E0008DF80300684600F011F812208DF8000009
:1021F00001208DF8010000208DF8020001208DF8EB
:102200000300684600F002F808BD000070B5002128
:1022100000230F22C47804B3154C246804F4E0644E
:10222000C4F5E064210AC1F10403CA40447804FA09
:1022300003F184781440214309010E4C0678A1551E
:10224000047804F01F050124AC4005786D11AD0041
:1022500005F1E025C5F8004109E0047804F01F0508
:102260000124AC40044D0678761145F8264070BD37
:102270000CED00E000E400E080E100E070470000C9
:1022800001460020034A506820F440400843506053
:10229000704700000010024029B1064AD26902438B
:1022A000044BDA6104E0034AD2698243014BDA61EC
:1022B000704700000010024029B1064A92690243AB
:1022C000044B9A6104E0034A92698243014B9A618C
:1022D000704700000010024029B1064AD26802434C
:1022E000044BDA6004E0034AD2688243014BDA60AF
:1022F000704700000010024030B500210022002489
:1023000000232D4D6D6805F00C0121B1042905D085
:10231000082923D105E0294D056022E0274D0560FD
:102320001FE0254D6D6805F47012234D6D6805F4AE
:102330008034022505EB92421CB9214D55430560BE
:102340000BE01D4D6D6805F400351DB11C4D554366
:10235000056002E0194D5543056002E0174D056028
:1023600000BF00BF144D6D6805F0F0010909154D5F
:102370006B5C0568DD4045600F4D6D6805F4E061FC
:10238000090A104D6B5C4568DD4085600A4D6D683B
:1023900005F46051C90A0B4D6B5C4568DD40C560B2
:1023A000054D6D6805F44041890B074D6B5CC568B0
:1023B000B5FBF3F5056130BD0010024000127A0054
:1023C00000093D00140000202400002010B57121F8
:1023D000144800F03EF818B313480088002818DDB0
:1023E0001248006812490988405C0E4988810846F5
:1023F0008089104909680E4A128888540A48008862
:10240000401E094908800A480088401C0849088085
:1024100002E00120084908707121024800F00FF81D
:1024200010BD000000300140CA010020C40100209E
:10243000C2010020BC010020CC010020704710B573
:10244000002201F00F040123A3409AB2D343038179
:1024500010BDF0B50246002000240023002501F045
:102460000F070126BE40B4B20B1101269E40B3B245
:10247000968806EA03051689264016B10DB101209B
:1024800000E00020F0BD704710B500F001F810BD6D
:102490000CB50020019000903348006840F4803073
:1024A0003149086000BF3048006800F400300090F7
:1024B0000198401C0190009818B90198B0F5A06FE0
:1024C000F1D12948006800F4003010B101200090DB
:1024D00001E0002000900098012843D123480068C3
:1024E00040F01000214908600846006820F0030011
:1024F00008600846006840F0020008601A4840681A
:10250000194948600846406848600846406840F4F9
:10251000806048600846406820F47C1048600846A7
:10252000406840F4E81048600846006840F0807059
:10253000086000BF0C48006800F000700028F9D067
:102540000948406820F00300074948600846406891
:1025500040F00200486000BF0348406800F00C00F3
:102560000828F9D10CBD00000010024000200240F4
:1025700010B500F0B1F805480068401C0349086038
:102580004FF480710248FFF77EFA10BD2C00002046
:102590000008014030B51A4800684FF47A72B0FB69
:1025A000F2F1B1F1807F01D301201DE021F07F40E5
:1025B000401E4FF0E022506150170F22002807DA2A
:1025C00013071D0E0F4B00F00F04241F1D5503E0D1
:1025D00013071C0E0C4B1C5400BF00204FF0E022D0
:1025E000906107201061002008B100BFFEE74FF0A6
:1025F000E020006920F001004FF0E021086130BDCB
:102600000000002018ED00E000E400E010B51348E1
:10261000006840F001001149086008464068104910
:1026200008400E494860084600680E4908400B49BA
:1026300008600846006820F480200860084640686A
:1026400020F4FE0048604FF41F008860FFF71CFF75
:102650004FF000600449086010BD00000010024007
:102660000000FFF8FFFFF6FE08ED00E070470000F5
:1026700010B501210A4800F01EF880B14FF4006146
:102680000848FFF700FA012007490870074800884A
:10269000401C064908800121014800F009F810BDDE
:1026A000000400400008014064010020680100208F
:1026B000CA430282704730B502460020002300243E
:1026C000158A05EA0103958905EA010413B10CB1E5
:1026D000012000E0002030BD0448006820B103481C
:1026E0000068401E01490860704700002800002073
:1026F00000B585B0012144F20500FFF7DDFD4FF480
:102700000070ADF8100018208DF8130003208DF82C
:10271000120004A91748FFF7D5F84FF48060ADF810
:10272000100004208DF8130003208DF8120004A976
:102730001048FFF7C7F84FF4E13000900020ADF8E3
:102740000400ADF80600ADF80800ADF80C000C2050
:10275000ADF80A006946084800F0E0F90121064892
:1027600000F081F940F22661034800F06DF905B0F0
:1027700000BD0000000801400038014070B505466A
:102780000E46002400BF1348006813490968401A28
:102790000228F8D340211148FFF777F9FF2400BF42
:1027A000201EA4F10104FBD100240BE0285D0C499C
:1027B000088000BF0A48001F008800F04000002881
:1027C000F8D0641CB442F1D340210448FFF75BF910
:1027D00070BD00002C0000205C00002000080140BB
:1027E0000438014000B585B001218804FFF754FD8D
:1027F00001210820FFF760FD4FF48060ADF8100064
:1028000018208DF8130003208DF8120004A91A482F
:10281000FFF758F84FF40060ADF8100004208DF871
:10282000130003208DF8120004A91348FFF74AF89B
:102830004FF4E13000900020ADF80400ADF8060040
:10284000ADF80800ADF80C000C20ADF80A006946A0
:102850000A4800F063F9012240F22551074800F0D0
:1028600038F90121054800F0FEF840F226610348DE
:1028700000F0EAF805B000BD000C0140004800403F
:1028800010B50246002000BF0BE0135C064C23800D
:1028900000BF054B1B1F1B8803F04003002BF8D023
:1028A000401C8842F1D310BD0448004010B50748D1
:1028B000074908600748084908600848084908604F
:1028C000FFF716FFFFF78EFF10BD0000E824002081
:1028D0007C0100206827002090010020682800204B
:1028E000A401002010B519480068194908604FF488
:1028F00080711848FFF7C9F840F22551164800F0DA
:10290000BEF8B0B11448001D008814490968144A83
:102910001288885412480088401C114908800846D3
:102920000088C0F30800088040F225510A4800F0F2
:102930008BF840F22771084800F0A1F820B140F26E
:102940002771054800F080F810BD00002C00002021
:102950005C00002000080140003801407C0100209C
:102960008E00002010B540F22551164800F087F87F
:10297000D8B1154800881549098888420DDA1148F0
:10298000001D0088124909680F4A128888540E48B1
:102990000088401C0C49088002E001200D490870A5
:1029A00040F22551074800F04FF840F227710548E2
:1029B00000F065F820B140F22771024800F044F8B9
:1029C00010BD00000044004096010020940100204A
:1029D00090010020A201002010B516480068164999
:1029E000086040F22551154800F049F8B0B113488D
:1029F000001D008812490968124A1288885411483B
:102A00000088401C0F4908800846007800F07F00CD
:102A1000088040F22551094800F016F840F227716D
:102A2000064800F02CF820B140F22771034800F06E
:102A30000BF810BD2C000020600000200048004072
:102A4000A40100209200002010B50022002340F6CF
:102A50006A14A14200D100BF0A1201249440A3B21B
:102A6000DC43048010BD21B1828942F4005282818E
:102A700004E082894DF6FF731A408281704770B579
:102A80000246002400230025002040F66A16B142C9
:102A900000D100BFC1F3421501F01F03012606FA61
:102AA00003F3012D02D19689334006E0022D02D1B5
:102AB000168A334001E0968A33400C12012606FA4A
:102AC00004F41688344013B10CB1012000E000205A
:102AD00070BDF0B50346002400260025002040F616
:102AE0006A17B94200D100BF1846C1F3421401F081
:102AF0001F06012707FA06F5012C01D10C3004E06E
:102B0000022C01D1103000E014301AB107682F43B5
:102B1000076002E00768AF430760F0BD2DE9F047AA
:102B200086B005460E460024A24600BFA1460027F7
:102B3000B08900B100BF2F462C8A4CF6FF700440CC
:102B4000F08804432C82AC894EF6F3100440B08820
:102B500031890843718908430443AC81AC8A4FF63C
:102B6000FF400440B0890443AC8201A8FFF7C4FBD6
:102B70001F48874202D1DDF810A001E0DDF80CA06B
:102B8000A88900F4004040B10AEBCA0000EB0A102B
:102B900031684900B0FBF1F807E00AEBCA0000EB2E
:102BA0000A1031688900B0FBF1F86420B8FBF0F03E
:102BB00004012009642101FB1089A88900F4004068
:102BC00040B1322000EBC900B0FBF1F000F007008B
:102BD000044308E0322000EB09106421B0FBF1F05F
:102BE00000F00F0004432C8106B0BDE8F087000020
:102BF0000038014000BFFEE702E008C8121F08C10C
:102C0000002AFAD170477047002001E001C1121F6D
:102C1000002AFBD17047000010B568202B490870CE
:102C2000092048702A480078C01C00F07F0029491C
:102C3000085C2649887028484078C8702448007885
:102C4000001D00F07F002349085C204908712248DC
:102C5000807948712048C07988711F48007AC8710E
:102C60001D48407A08721C48807A48721A48C07A17
:102C700088721948007BC8721748407B0873164851
:102C8000807B48731448C07B88731348007CC873EA
:102C900000200874012408E00C48007C0B49095D01
:102CA00008440A490874601CC4B2084840780221EC
:102CB000C1EB4000A042EFDC99200449487408466B
:102CC000407841000148FFF7DBFD10BDE8270020F8
:102CD00090000020682800201C02002010B56748E2
:102CE0000088674908806720664908706648007850
:102CF000801C00F07F006549085C624948706248AA
:102D00000078401D00F07F006049085C5D498871D3
:102D10005D480078801D00F07F005C49085C5949DF
:102D2000C87159480078C01D00F07F005749095C00
:102D30005448017254480078083000F07F0053492D
:102D4000095C5048417250480078093000F07F001B
:102D50004E49095C4B4881724B4800780A3000F0BC
:102D60007F004A49095C4748C172474800780B30E8
:102D700000F07F004549095C4248017342480078F1
:102D80000C3000F07F004149095C3E4841733E48E9
:102D900000780D3000F07F003C49095C39488173B0
:102DA000394800780E3000F07F003849085C35491A
:102DB000C873354800780F3000F07F003349095C54
:102DC00030480174802232490020FEF7FDF9682066
:102DD00030490870042048702B480078C01C00F06F
:102DE0007F002A49085C2B49887026484078C870C3
:102DF00025480078001D00F07F002449085C254923
:102E0000087180212448FEF740FE1E48C07B2049FF
:102E1000C978884209D1FF201E4948711948C07DF0
:102E200020F002001749C87508E0002019494871D0
:102E30001448C07D40F002001249C87500201549B1
:102E40008871012408E0134880791249095D08441B
:102E500010498871601CC4B20E4840780221C1EB51
:102E60004000A042EFDC99200A49C871084640782A
:102E700041000848FFF704FD10BD000032000020AB
:102E8000360000201C02002090000020682800204E
:102E9000C8030020E82700200008014010B525489D
:102EA000008825490880682024490870042048705B
:102EB00023480078C01C00F07F002249085C1F49AD
:102EC000887021484078C8701D480078001D00F0C7
:102ED0007F001C49085C19490871002048718871FD
:102EE000012408E0154880791449095D0844134914
:102EF0008871601CC4B2114840780221C1EB4000C7
:102F0000A042EFDC99200D49C8710F4840780411A8
:102F1000042000EB440400BF0C4800680C49096819
:102F2000401AA042F8D30548407841000348FFF713
:102F3000A7FC10BD3200002036000020E82700204A
:102F400090000020682800201C0200202C00002097
:102F50005C00002010B54FF4807252490020FEF74B
:102F600033F96820504908700D2048704F48008898
:102F7000C01CC0F308004E49085C4B4988704D489E
:102F80004078C87049480088001DC0F308004849CF
:102F9000085C45490871022048714248007867285A
:102FA00046D140484078002810DD3E48407988717D
:102FB000002408E004F10A003A49095CE01D3A4A9D
:102FC0001154601C84B2082CF4DB0CE0002036495C
:102FD0008871002405E00021E01D334A1154601C73
:102FE00084B2082CF7DB2F484078012811DD2D48EA
:102FF000C07D2D49C873002408E004F11C00294954
:10300000095C0C38284A1154601C84B2082CF4DB8B
:1030100029E000202449C873002406E0002104F1BF
:103020001000214A1154601C84B2082CF6DB1AE00F
:1030300000201D498871002405E00021E01D1A4A86
:103040001154601C84B2082CF7DB00201649C873A9
:10305000002406E0002104F11000134A1154601C02
:1030600084B2082CF6DB00200F490876012408E022
:103070000D48007E0C49095D08440B490876601C28
:1030800084B2094840780221C1EB4000A042EFDC45
:103090009920054948760846407841000248FFF7E4
:1030A0006DFB10BDC8030020682400208C000020A8
:1030B000E82400201C0200207CB5012540224D4957
:1030C0004FF47100FEF780F84B480088401CC0F3B5
:1030D00008004A49085C0A282FDB00240AE0464819
:1030E00000882044C0F308004449085C4149085561
:1030F000601CC4B2142CF2DB4FF47100FEF7D6F85A
:1031000040223C494FF47100FEF706F9FF254022AA
:10311000384940314FF47100FEF756F800240AE0B8
:103120003448015D04F14000324A105C814200D015
:103130000025601CC4B2142CF2DB682030490870F2
:10314000042048702C480088C01CC0F308002B499C
:10315000085C2B4988702B484078C8702648008846
:10316000001DC0F308002549085C25490871084680
:10317000457100208871012408E0214880792049A8
:10318000095D08441E498871601CC4B21C4840781F
:103190000221C1EB4000A042EFDC99201849C87120
:1031A0000846407841001648FFF7E8FA002406E098
:1031B000601D1049085C14490855601CC4B20C2CF1
:1031C000F6DB20222046611CCCB20F490A540022B3
:1031D0002046611CCCB20C490A5403204FF6FF7103
:1031E0000023094ACDE900107D214FF4967002F0CA
:1031F00053FF7CBDC80300208C000020E824002081
:10320000682400201C0200200C2C002070470000C5
:1032100070B56820654908700420487064480088CB
:10322000C01CC0F308006349085C604988706248AC
:103230004078C8705E480088001DC0F308005D49F2
:10324000085C5A490871012048710020497802221F
:10325000C2EB4101554A5054012511E053484078D2
:103260000221C1EB40005149085C495D08444F49C7
:1032700049780222C2EB41014C4A5054681CC5B245
:103280004A4840780221C1EB4000A842E6DC992080
:103290004649C8710846407841004448FFF76EFA35
:1032A000002443480088401DC0F308004149085CE1
:1032B00001280AD100BF04E02046FDF7C1FF04F554
:1032C00080343E488442F7D327E039480088401DC7
:1032D000C0F308003749085C02280AD1840404E0DE
:1032E0002046FDF7ADFF04F5803435488442F7D31E
:1032F00013E02F480088401DC0F308002D49085CEA
:1033000003280AD14FF4801404E02046FDF798FF0B
:1033100004F580342B488442F7D368202349087091
:103320000420487022480088C01CC0F308002149CE
:10333000085C1E49887020484078C8701C48008886
:10334000001DC0F308001B49085C18490871FF20E4
:103350004871002049780222C2EB4101134A5054BF
:10336000012511E0114840780221C1EB40000F49CE
:10337000085C495D08440D4949780222C2EB4101CD
:103380000A4A5054681CC5B2084840780221C1EB73
:103390004000A842E6DC99200449C87108464078FC
:1033A00041000248FFF7EAF970BD000068240020E0
:1033B0008C000020E82400201C020020FFFF0100F8
:1033C000FFFF0900FFFF2F002DE9F0410027FE4815
:1033D0000088801DC0F30800FC49085C01287DD1ED
:1033E0000202FB490020FDF7EFFE00BF002600258A
:1033F000F74840780D2802DD0D20F549487000247B
:103400004CE0F3480078672800D04BE004EBC400A0
:103410004000401DEE49095CEB480088C01DC0F328
:103420000800EA4A105C814236D1FF2704EBC40051
:103430004000801DE6490D5C2D0204EBC4004000F5
:10344000C01D085C05442D0204EBC4004000083098
:10345000085C05442D0204EBC40040000930085C00
:10346000054404EBC400400012300E5C360204EB4D
:10347000C40040001330085C0644360204EBC4006C
:1034800040001430085C0644360204EBC4004000DF
:103490001530085C064405E0601C84B2CC484078D6
:1034A000A042AEDC00BF6820CA4908700420487002
:1034B000C5480088C01CC0F30800C449085CC54961
:1034C0008870C5484078C870BF480088001DC0F3A8
:1034D0000800BE49085CBF49087100E043E04F7135
:1034E00000208871012408E0BA488079B949095D53
:1034F0000844B8498871601C84B2B64840780221FB
:10350000C1EB4000A042EFDC9920B249C8710846E7
:1035100040784100AF48FFF731F9002D10D0AA489C
:103520000088401DC0F30800A849085CAA49C97B6F
:10353000884206D1012332463821502001F0DAFCBE
:1035400004E2A1480088401DC0F308009F49095CBF
:10355000A148007C8142F3D1022332463821502019
:1035600001F0C8FCF2E198480088801DC0F3080013
:103570009649085C02287DD1420295498004FDF7F6
:1035800023FE00270026002591484078342802DDDC
:1035900034208F49487000244CE08D48007867281B
:1035A00000D04BE004EBC4004000401D8849095C9A
:1035B00085480088C01DC0F30800844A105C814221
:1035C00036D1FF2704EBC4004000801D80490D5C0C
:1035D0002D0204EBC4004000C01D085C05442D0210
:1035E00004EBC40040000830085C05442D0204EBE5
:1035F000C40040000930085C054404EBC4004000EE
:1036000012300E5C360204EBC40040001330085C3C
:103610000644360204EBC40040001430085C064443
:10362000360204EBC40040001530085C064405E097
:10363000601C84B266484078A042AEDC00BF6820BF
:1036400064490870042048705F480088C01CC0F3BB
:1036500008005E49085C5F4988705F484078C87020
:1036600059480088001DC0F308005849085C5949B2
:10367000087100E04DE04F7100208871012408E0DE
:10368000544880795349095D084452498871601C47
:1036900084B2504840780221C1EB4000A042EFDCE8
:1036A00099204C49C8710846407841004948FFF7C5
:1036B00065F8002D15D044480088401DC0F308006F
:1036C0004249085C4449C97B88420BD12A46434998
:1036D0003046FDF779FD0020404981F8000881F867
:1036E000010833E138480088401DC0F3080037491D
:1036F000095C3948007C8142F3D12A46384930467A
:10370000FDF762FD0020364981F8000881F80108C4
:103710001CE12D480088801DC0F308002B49085C7F
:1037200003287DD14FF4806229499002FDF74CFDBA
:1037300000270026002526484078342802DD342062
:103740002349487000245BE021480078672800D0B6
:103750005AE004EBC4004000401D1D49095C1A48B2
:103760000088C01DC0F30800184A105C814245D192
:10377000FF2704EBC4004000801D15490D5C2D029D
:1037800004EBC4004000C01D085C05442D0204EB9E
:10379000C40040000830085C05442D0204EBC4005E
:1037A00040000930085C054404EBC40040001230BE
:1037B0000E5C360204EBC40040001330085C064483
:1037C000360204EBC4000DE08C000020E824002049
:1037D000C8030020682400201C020020CC13002015
:1037E000CE1B002040001430085C0644360204EB77
:1037F000C40040001530085C064405E0601C84B23B
:1038000053484078A0429FDC00BF682051490870AF
:103810000420487050480088C01CC0F3080000E035
:103820005CE04E49085C4B4988704D484078C87050
:1038300049480088001DC0F308004849085C454914
:1038400008714F7100208871012408E04148807997
:103850004049095D08443F498871601C84B23D4875
:1038600040780221C1EB4000A042EFDC99203949A9
:10387000C8710846407841003648FEF77FFF002DAA
:1038800064D000214FF40070FEF716FD3248008826
:10389000401DC0F308003149085C3149C97B8842AA
:1038A00006D1012332460021084601F023FB10E037
:1038B00029480088401DC0F308002849095C2848B1
:1038C000007C814205D1022332460021084601F0E6
:1038D00011FB01214802FEF7EFFC37E068201D498B
:1038E0000870042048701C480088C01CC0F3080001
:1038F0001A49085C1749887019484078C8701648FA
:103900000088001DC0F308001449085C11490871C3
:103910004F7100208871012408E00E4880790D491C
:10392000095D08440B498871601C84B209484078DD
:103930000221C1EB4000A042EFDC99200549C8718B
:103940000846407841000348FEF718FFBDE8F081C3
:10395000C8030020682400208C000020E8240020F8
:103960001C0200202DE9F041FB480088801DC0F3B7
:103970000800FA49085C01287ED10202F8490020BB
:10398000FDF722FCF6480078672876D1F4484578A0
:1039900005EBC500062101EB4005F1488078F149AF
:1039A00008600846006800020860ED48C0780968B1
:1039B0000844EC4908600846006800020860E648D0
:1039C00000880830C0F30800E4490E5C3602E24883
:1039D00000880930C0F30800085C06443602DE485F
:1039E00000880A30C0F30800085C06443602DA4852
:1039F00000880B30C0F30800085C0644D948006812
:103A00008719D94887427CD2D54840780D287CDC7C
:103A10004FF0FF08F8B210B9D448076008E027F06B
:103A2000FF00D24908600846006800F58070086011
:103A30000020FDF73BFC00240DE0C7480088801DF6
:103A40002044C0F30800C549095CA81E2044C44AAC
:103A50001154601C84B20E2CEFDBC2480068010ECA
:103A6000A81E2044BE4A1154601C84B2BD480068A0
:103A7000C0F30741A81E01E013E149E020441154BE
:103A8000601C84B2B7480088C0F30721A81E2044F8
:103A90001154601C84B2B3480178A81E204411540C
:103AA00067201146087008464078401C4870AF48AF
:103AB0000068000C8870AD480088000AC87008468D
:103AC000457805EBC500062101EB40050021681E85
:103AD000115401240AE0681EA149085C095D0844EC
:103AE000C1B2681E9E4A1154601C84B2A81EA04236
:103AF000F1DC9921681E9A4A11542A4698490020FF
:103B000000E002E0FDF708FC89E24FF00008FBE767
:103B1000672093490870002048704FF48056300C9D
:103B20008870300AC8700846457805EBC500062144
:103B300001EB40058A4880788A4908600846006899
:103B4000000208608648C078096808448549086012
:103B500008460068000208607F4800880830C0F30B
:103B600008007E490E5C36027B4800880930C0F3AD
:103B70000800085C06443602774800880A30C0F323
:103B80000800085C06443602734800880B30C0F316
:103B90000800085C06447348006887197248874229
:103BA0007CD26F4840780D2878DC4FF0FF08F8B2DF
:103BB00010B96E48076008E027F0FF006B49086005
:103BC0000846006800F5807008600020FDF76EFB75
:103BD00000240DE060480088801D2044C0F30800E8
:103BE0005E49095CA81E20445D4A1154601C84B2E1
:103BF0000E2CEFDB5B480068010EA81E2044584ADB
:103C00001154601C84B257480068C0F30741A81ED5
:103C100020441154601C84B252480088C0F307212C
:103C2000A81E20441154601C84B24E480178A81E7E
:103C30002044115467201146087008464078401C03
:103C400048704A480068000C887048480088000A9C
:103C5000C8700846457805EBC500062101EB400514
:103C60000021681E115401240AE0681E3C49085CCA
:103C7000095D0844C1B2681E394A1154601C84B2FF
:103C8000A81EA042F1DC9921681E354A11542A462B
:103C900033490020FDF740FB86E3FFE74FF00008C3
:103CA00082E32D480088801DC0F308002B49085C82
:103CB00002286ED142022A498004FDF785FA28487D
:103CC000007867287ED12648457805EBC500062197
:103CD00001EB4005224880782249086008460068C8
:103CE000000208601E48C078096808441D49086041
:103CF0000846006800020860174800880830C0F3D2
:103D0000080016490E5C3602134800880930C0F3DB
:103D10000800085C064436020F4800880A30C0F3E9
:103D20000800085C064436020B4800880B30C0F3DC
:103D30000800085C06440B48006887190C48874255
:103D400075D207484078342871DC4FF0FF08F8B28C
:103D500080B90648076016E08C000020E8240020A7
:103D6000C803002078000020FFFF0100840000202D
:103D7000FFFF090027F0FF00FE49086008460068C1
:103D800000F5807008604FF40020FDF78FFA0024E2
:103D90000EE048E1F8480088801D2044C0F3080088
:103DA000F649095CA81E2044F54A1154601C84B2EF
:103DB0000E2CEFDBF3480068010EA81E2044F04AE9
:103DC000115400E05AE0601C84B2EE480068C0F371
:103DD0000741A81E20441154601C84B2E9480088A1
:103DE000C0F30721A81E20441154601C84B2E5488A
:103DF0000178A81E20441154672011460870084617
:103E00004078401C4870DB480068000C8870D94836
:103E10000088000AC8700846457805EBC5000621F1
:103E200001EB40050021A81E115401240BE022E003
:103E3000A81ED349085C095D0844C1B2A81ED04A37
:103E40001154601C84B2A81EA042F1DC9921681EA6
:103E5000CB4A115400240AE0C94A111904F5002084
:103E60004FF48072FDF758FA04F5807084B2B4F50F
:103E7000806FF1DB98E24FF0000895E26720C049BF
:103E80000870002048704FF40126300C8870300A0A
:103E9000C8700846457805EBC500062101EB4005D2
:103EA000B7488078B7490860084600680002086093
:103EB000B348C07809680844B249086008460068F9
:103EC00000020860AC4800880830C0F30800AB4925
:103ED0000E5C3602A84800880930C0F30800085C70
:103EE00006443602A44800880A30C0F30800085C83
:103EF00006443602A04800880B30C0F30800085C76
:103F00000644A048006887199F48874278D29C4899
:103F10004078342874DC4FF0FF08F8B210B99548A7
:103F2000076008E027F0FF00924908600846006833
:103F300000F5807008604FF40020FDF7B7F9002409
:103F40000DE08D480088801D2044C0F308008B4997
:103F5000095CA81E20448A4A1154601C84B20E2CAD
:103F6000EFDB88480068010EA81E2044844A1154E3
:103F7000601C84B283480068C0F30741A81E204437
:103F80001154601C84B27F480088C0F30721A81E2A
:103F900020441154601C84B27A480178A81E204441
:103FA000115467201146087008464078401C48703C
:103FB00070480068000C88706E480088000AC8705D
:103FC0000846457805EBC500062101EB40050021B8
:103FD000A81E115401240AE0A81E6949085C095D65
:103FE0000844C1B2A81E664A1154601C84B2A81EBF
:103FF000A042F1DC9921681E614A115400240BE0B3
:104000000EE05F4A111904F500204FF48072FDF7AD
:1040100083F904F5807084B2B4F5806FF1DBC3E1FD
:104020004FF00008C0E154480088801DC0F308002C
:104030005249085C0328F2D14FF480625049900243
:10404000FDF7C2F84E48007867287CD14C48457887
:1040500005EBC500062101EB400549488078494938
:10406000086008460068000208604548C078096892
:1040700008444449086008460068000208603E4859
:1040800000880830C0F308003C490E5C36023A480C
:1040900000880930C0F30800085C06443602364840
:1040A00000880A30C0F30800085C06443602324833
:1040B00000880B30C0F30800085C064431480068F3
:1040C00087193248874275D22D484078342871DCF0
:1040D0004FF0FF08F8B210B92648076008E027F053
:1040E000FF00244908600846006800F580700860F9
:1040F0004FF48010FDF7DAF800240DE01E48008828
:10410000801D2044C0F308001C49095CA81E2044FF
:104110001B4A1154601C84B20E2CEFDB1948006856
:10412000010EA81E2044164A1154601C84B2154882
:104130000068C0F30741A81E20441154601C84B2DB
:104140001048008800E05CE0C0F30721A81E20446E
:104150001154601C84B20B480178A81E20441154ED
:1041600067201146087008464078401C4870014896
:1041700000680DE0840000208C000020E82400206E
:10418000C803002078000020FFFF0900FFFF2F0078
:10419000000C8870C0480088000AC870084645783E
:1041A00005EBC500062101EB40050021A81E1154B6
:1041B00001240BE022E0A81EB849085C095D084410
:1041C000C1B2A81EB54A1154601C84B2A81EA042F8
:1041D000F1DC9921681EB14A115400240AE0AF4A6B
:1041E000111904F580104FF48072FDF795F804F56D
:1041F000807084B2B4F5806FF1DBD5E04FF0000839
:10420000D2E06720A549087000204870A44E300C09
:104210008870300AC8700846457805EBC50006214D
:1042200001EB40059D4880789E490860084600687B
:10423000000208609948C0780968084499490860F4
:104240000846006800020860974800880830C0F3FC
:10425000080096490E5C3602934800880930C0F386
:104260000800085C064436028F4800880A30C0F314
:104270000800085C064436028B4800880B30C0F307
:104280000800085C06448748006887198848874208
:1042900078D282484078342874DC4FF0FF08F8B2B6
:1042A00010B97D48076008E027F0FF007A490860F0
:1042B0000846006800F5807008604FF48010FCF735
:1042C000F5FF00240DE078480088801D2044C0F3ED
:1042D00008007649095CA81E2044704A1154601CED
:1042E00084B20E2CEFDB6F480068010EA81E20443C
:1042F0006A4A1154601C84B26A480068C0F30741DE
:10430000A81E20441154601C84B266480088C0F383
:104310000721A81E20441154601C84B26148017812
:10432000A81E2044115467201146087008464078A2
:10433000401C487058480068000C88705648008837
:10434000000AC8700846457805EBC500062101EB58
:1043500040050021A81E115401240AE0A81E4F495F
:10436000085C095D0844C1B2A81E4C4A1154601C87
:1043700084B2A81EA042F1DC9921681E474A11545C
:1043800000240BE00EE0454A111904F580104FF4AB
:104390008072FCF7C1FF04F5807084B2B4F5806FC1
:1043A000F1DB01E04FF0000868204249087004206A
:1043B00048703D480088C01CC0F308003B49085CB9
:1043C0003C4988703C484078C87037480088001DD8
:1043D000C0F308003549085C36490871B8F1000F90
:1043E00002D10020487137E0FF2032494871012096
:1043F000324908702C480088801DC0F308002B4902
:10440000085C012806D12D48007840F010002B49A7
:1044100008701EE024480088801DC0F3080023496E
:10442000085C022806D12548007840F02000234986
:1044300008700EE01C480088801DC0F308001B496E
:10444000085C032805D11D48007840F040001B4956
:10445000087000201A49087000201649887101244C
:1044600008E0144880791349095D084411498871AE
:10447000601C84B20F4840780221C1EB4000A0428A
:10448000EFDC99200B49C871084640784100094883
:10449000FEF774F9BDE8F08184000020C803002015
:1044A00000101000780000208C000020E82400207C
:1044B000FFFF2F00682400201C0200208100002044
:1044C0008000002070B565480088801DC0F308009A
:1044D0006349085C63490978884254D1624800788E
:1044E00000F00F0001284ED15E480078401C5D4965
:1044F00008705A480088401CC0F308005849085CFE
:104500004500B5F5857F1DD100240BE05348008898
:10451000C01D2044C0F308005149085C53490855A8
:10452000601C84B2FF2CF1DD4FF480724F4950487B
:104530000068FCF7F1FE4E48006800F580704C49B9
:1045400008601EE000240BE044480088C01D2044A1
:10455000C0F308004249085C44490855601C84B215
:10456000A5F10A00A042EFDC02464049404800683D
:10457000FCF7D2FEA5F10A003D49096808443C4910
:104580000860FF2600E0002634480088401DC0F384
:1045900008003349085CFF280ED13348007800F04A
:1045A0001000102805D13348C07D40F0100031497B
:1045B000C87500202C49087068202F490870052014
:1045C000487026480088C01CC0F308002449085CD5
:1045D0002949887027484078C87020480088001D05
:1045E000C0F308001E49085C234908711B48008875
:1045F000401DC0F308001A49085C1F49487117485C
:104600000088801DC0F308001549085C1A498871AC
:1046100016B90020C87102E0FF201749C8710020B8
:1046200015490872012408E01348007A1249095D0F
:10463000084411490872601C84B20F484078022176
:10464000C1EB4000A042EFDC99200B4948720846BC
:10465000407841000848FEF791F870BD8C000020BA
:10466000E82400208000002081000020C8030020F2
:10467000780000201C0200206824002010B50024CF
:1046800013E004EB4400801C154931F810000012BF
:10469000144A02F8140004EB4400801C11F81010B6
:1046A0006000401C1154601CC4B2082CE9DB0024DB
:1046B0000FE00D4830F81400011260001030094A74
:1046C0001154094810F81410600011301154601C86
:1046D000C4B2082CEDDB20210248FEF74FF810BDD4
:1046E0006829002068240020E82B002070B5584875
:1046F0000088401DC0F3080056490D5C284605EBB4
:10470000D0714910A5EB4101CDB2002D56D16820E2
:1047100051490870062048704D480088C01CC0F3FD
:1047200008004C49085C4C4988704C484078C87077
:1047300047480088001DC0F308004649085C464908
:1047400008714648C07B487145480088001288714E
:1047500043480078C87143480088001208724148F5
:104760000078487200208872012408E03A48807A74
:104770003949095D084438498872601CC4B236481A
:1047800040780221C1EB4000A042EFDC9920324981
:10479000C872324840780411042000EB440400BF82
:1047A0003148006831490968401AA042F8D32A48C4
:1047B000407841002848FDF7E1FF47E0682026499E
:1047C00008700620487022480088C01CC0F308000A
:1047D0002049085C2049887020484078C8701C48EF
:1047E0000088001DC0F308001A49085C1A490871C6
:1047F0001A48007C48711A4840880012887118488D
:104800008078C8711748408800120872154880786F
:10481000487200208872012408E00F48807A0E490F
:10482000095D08440C498872601CC4B20A4840788B
:104830000221C1EB4000A042EFDC99200649C8727A
:104840000846407841000448FDF798FF70BD00001D
:104850008C000020E8240020682400201C02002096
:1048600064000020680000202C0000205C00002074
:1048700070B54E480088401DC0F308004C490D5CDF
:104880004C48C07BA8424DD168204B490870042099
:10489000487046480088C01CC0F308004449085CC2
:1048A0004549887043484078C87040480088001DDA
:1048B000C0F308003E49085C3F4908713D48C07B91
:1048C000487100203D4908803D4908803A49887177
:1048D000012408E0384880793749095D08443649A1
:1048E0008871601CC4B2344840780221C1EB40009A
:1048F000A042EFDC99203049C8712E48407804115D
:10490000042000EB440400BF2E4800682E490968CB
:10491000401AA042F8D32848407841002648FDF7C5
:104920002DFF42E02348007CA8423ED16820224966
:104930000870042048701D480088C01CC0F308009F
:104940001B49085C1C4988701A484078C870174891
:104950000088001DC0F308001549085C164908715D
:104960001448007C4871002014494880144948804C
:1049700011498871012408E00F4880790E49095DCA
:1049800008440D498871601CC4B20B48407802216C
:10499000C1EB4000A042EFDC99200749C8710846EE
:1049A000407841000448FDF7E9FE70BD8C0000200E
:1049B000E82400201C02002068240020640000205D
:1049C000680000202C0000205C00002070B57E48AC
:1049D0000088401DC0F308007C490D5C7C48C07B0A
:1049E000A8427DD168207B49087005204870764830
:1049F0000088C01CC0F308007449085C75498870C1
:104A000073484078C87070480088001DC0F30800E3
:104A10006E49085C6F4908716D48C07B48716A48EF
:104A20000088801DC0F308006849085C69498871E6
:104A300065480088C01DC0F308006449085C6549EA
:104A4000C87161480088801DC0F308005F49085C98
:104A500061490880084600884FF6FF7101EA00208E
:104A60005D4908800846018857480088C01DC0F38A
:104A70000800564A105C08445749088008460088D8
:104A800056490880002053490872012408E0514823
:104A9000007A5049095D08444E490872601CC4B24E
:104AA0004C4840780221C1EB4000A042EFDC992045
:104AB00048494872464840780411042000EB4404F9
:104AC00000BF4748006847490968401AA042F8D328
:104AD0004048407841003F48FDF750FE72E0FFE754
:104AE0003B48007CA8426DD168203A4908700520F7
:104AF000487035480088C01CC0F308003349085C82
:104B00003449887032484078C8702F480088001DAA
:104B1000C0F308002D49085C2E4908712C48007C20
:104B2000487129480088801DC0F308002749085CA7
:104B30002849887124480088C01DC0F30800234913
:104B4000085C2449C87120480088801DC0F3080013
:104B50001E49085C20494880084640884FF6FF718E
:104B600001EA00201C494880084641881648008810
:104B7000C01DC0F30800154A105C0844164948805F
:104B800008464088154948800020124908720124CF
:104B900008E01048007A0F49095D08440D49087281
:104BA000601CC4B20B4840780221C1EB4000A04217
:104BB000EFDC9920074948720846407841000548D3
:104BC000FDF7DCFD70BD00008C000020E824002013
:104BD0001C020020682400206400002068000020DF
:104BE0002C0000205C00002070B518480088801D53
:104BF000C0F3080016490C5C240214480088C01D4C
:104C0000C0F30800085C04442402104800880830FF
:104C1000C0F308000D5C2D020C4800880930C0F379
:104C20000800085C05442D0226460CE04FF4806223
:104C300008493046FCF7C8FA06F580664FF48061F3
:104C40000448FDF79BFDAE42F0D370BD8C00002000
:104C5000E8240020C803002010B520213A48FCF7C2
:104C600014FF10213848FCF710FF80213648FCF76C
:104C70000CFF40213448FCF708FF4FF40071324824
:104C8000FCF703FF4FF480712F48FCF7FEFEC820AD
:104C9000FBF7D0FDFCF7FCFE10222C494FF470000E
:104CA000FCF792FA4FF47000FCF700FB1022284941
:104CB0004FF47000FCF730FB102224494FF47000D1
:104CC000FCF782FA682023490870042048702248C3
:104CD0000088C01CC0F308002049085C1D4988708A
:104CE0001F484078C8701C480088001DC0F30800A9
:104CF0001A49085C1749087117480088401DC0F31D
:104D000008001649085C1349487100208871012485
:104D100008E0104880790F49095D08440D49887101
:104D2000601CC4B20B4840780221C1EB4000A04295
:104D3000EFDC99200749C8710846407841000548D2
:104D4000FDF71CFD10BD0000000C014048020020D2
:104D5000E82B0020682400208C000020E82400209C
:104D60001C02002010B568201B4908700420487000
:104D70001A480088C01CC0F308001949085C16498D
:104D8000887018484078C87014480088001DC0F327
:104D900008001349085C10490871002048718871A7
:104DA000012408E00C4880790B49095D08440A4950
:104DB0008871601C84B2084840780221C1EB400031
:104DC000A042EFDC99200449C871084640784100B0
:104DD0000148FDF7D3FC10BD682400208C000020A2
:104DE000E82400201C02002070B539480088801D8E
:104DF000C0F3080037490D5C2D0235480088C01DFE
:104E0000C0F30800085C05442D02B5F5700F5ED3B1
:104E10002846FCF74BFA2E480088401CC0F30800D7
:104E20002C490E5C4FF6FF7000EA4606A6F10A0018
:104E300086B200240BE02648008808302044C0F3E6
:104E400008002449085C24490855601C84B2B44217
:104E5000F1DB324620492846FCF75EFA68201F49FC
:104E60000870042048701A480088C01CC0F308006D
:104E70001849085C1949887019484078C870144866
:104E80000088001DC0F308001249085C134908712E
:104E9000FF20487100208871012408E00F488079C4
:104EA0000E49095D08440D498871601C84B20B48A5
:104EB00040780221C1EB4000A042EFDC9920074975
:104EC000C8710846407841000448FDF757FC70BDA2
:104ED0008C000020E8240020C80300206824002063
:104EE0001C020020014600BF0A1EA1F10101FBD1F6
:104EF000704700002DE9FF4F85B093464FF0000941
:104F0000CA464022AB495846FCF75EF9A948007FE3
:104F100001287DD1A748467B3602007B0644360235
:104F2000A448C07A06443602A248807A0644A148C2
:104F3000447D2402007D044424029E48C07C044435
:104F400024029C48807C044404F01F0020B104F13A
:104F5000200828F01F0800E0A0469648457E2D0254
:104F6000007E05442D029348C07D05442D029148E2
:104F7000807D05448F480078422803D18D484078D1
:104F80004D2800D00024B5F5A07F00D90024002CC6
:104F900071D0F02C6FD8089801F080F9029400BF0E
:104FA000029C06982044431E05982844421EDDE9D1
:104FB0000501FDF73DF8FDF765F84FF000094EE0FB
:104FC0004FF0000A45E04FEAD80009FB00A7C7F3FD
:104FD0000A00B8B905FB08F0C7EBD000B0F5006FC8
:104FE00003D94FF40060009004E005FB08F0C7EB24
:104FF000D00000900BEB0601C8196E49009AFCF72F
:10500000E3F801970198381A6A49085C049000E0B7
:1050100031E00020039017E00398C0F107010498E5
:10502000084100F0010018B100206349088003E046
:105030004FF6FF70604908805F480088FCF7B6FFB4
:105040000398401CC0B2039003980828E4DB0AF1DF
:10505000010A0298BAEBD00FB5D309F10109A945AD
:10506000AED3EF2340F23F1200210846FCF7E0FFE9
:10507000089801F0FBF84F48007F10287ED14D487A
:10508000467B3602007B064436024A48C07A064414
:1050900036024848807A06444648447D2402007D12
:1050A000044424024348C07C044424024148807CD8
:1050B000044404F0010020B104F1020828F00108C2
:1050C00000E0A0463B48457E2D02007E05442D02AF
:1050D0003848C07D05442D023648807D054435485A
:1050E0000078422803D1334840784D2800D000246E
:1050F000B5F5A07F00D90024002C58D0F02C56D84C
:10510000089801F0CBF80294029C06982044431EB4
:1051100005982844421EDDE90501FCF789FFFCF7EC
:10512000B1FF2448254908604FF0000933E04FF0F3
:10513000000A2CE009FB08A7C7F30A00B8B905FB71
:1051400008F0C01BB0F5006F03D94FF480500090F9
:1051500004E005FB08F0C01B400000900BEB0601CB
:1051600001EB47001349009AFCF72EF801970198CC
:10517000381A1249096831F8100000E017E00E49AA
:10518000088008460088FCF711FF0AF1010AA245D1
:10519000D0D309F10109A945C9D3EF2340F23F1249
:1051A00000210846FCF744FF089801F05FF809B0B9
:1051B000BDE8F08FC8030020E80100205400002063
:1051C0001CB5FDF7E7F9FCF763FF4FF48071FC486D
:1051D000FCF759FCFBF7E8F8FDF768FBFCF7D7FF95
:1051E000012240F22551F748FDF773FC01224FF4EC
:1051F0000871F548FBF746F90020F4490880F449A6
:105200000880F449086008460068F34908600020F7
:10521000F24908769620FBF70DFB4FF48071E848C1
:10522000FCF7DBFB9620FBF705FB4FF48071E448AD
:10523000FCF7D3FB9620FBF7FDFA4FF48071E048B2
:10524000FCF7CBFB9620FBF7F5FA4FF48071DC48B6
:10525000FCF7C3FB9620FBF7EDFA4FF48071D848BA
:10526000FCF7BBFB9620FBF7E5FA4FF48071D448BE
:10527000FCF7B3FB8022DA490020FBF7A5FFD848F2
:105280000078672806D1D548C07D20F00C00D349AE
:10529000C87505E0D148C07D40F00C00CF49C87505
:1052A0002021D048FCF7F1FB1021CE48FCF7EDFBA4
:1052B0008021CC48FCF7E9FB4021CA48FCF7E5FB1C
:1052C0004FF40071C748FCF7E0FB4FF48071C5480C
:1052D000FCF7DBFB8021BA48FCF7D5FB4021B8483E
:1052E000FCF7D1FB4FF40071BF48FCF7CCFBFCF797
:1052F00039FCFCF739FD4FF48051BA48FCF7C3FB89
:105300002021AF48FCF7BFFB4FF47840FCF7D6FBF9
:105310004FF4FC60FCF7D2FB1F20FCF7CFFBB34A35
:105320000021DC2000F04CFC4FF48051AD48FCF72C
:10533000ACFB2021A248FCF7A8FB03201F21F0238F
:10534000C422CDE900100021222000F089FE0320B4
:1053500000214FF6FF73A64ACDE9001038215020F6
:1053600000F090FC00210846FCF7C5FB00216420FA
:10537000FCF7C1FB9F48007B303840F26541484351
:105380004FF6FF7101EA40109B49088008460188EA
:105390009848407B3038C0EB4012C2EB002001EB54
:1053A000001095490880084601889248C07C303832
:1053B000C0EB001000EB800001EBC0008E490880BC
:1053C000084601888B48007D3038C0EB001001EBA7
:1053D000800089490880084601888648007E303868
:1053E00000EB800001EB40008349088008460188FB
:1053F0008048407E303808447F490880002008807B
:1054000008460088488003201F210023794ACDE9FF
:1054100000101946342000F03FFE102277494FF467
:105420007000FBF7D1FE40226D494FF47100FBF78D
:10543000CBFE6B480078672813D1002405E0601D7F
:105440006749085C6E490855641C0C2CF7D3202270
:105450002046641C6A490A5400222046641C0A54EF
:1054600010E0002403E03F2065490855641C0C2C23
:10547000F9D320222046641C61490A5400222046A8
:10548000641C0A5403204FF6FF7100235C4ACDE9E7
:1054900000107D214FF4967000F0FEFD002408E01E
:1054A0005848005D584908555648005D5749085509
:1054B000641CB4F5006FF3D30020534981F8000851
:1054C00081F80108514981F8000881F8010803209A
:1054D0001F2180231A46CDE900103821502000F00A
:1054E000BFFD3E48C07D00F0040058B901230022F2
:1054F00038215020FBF7C6F9022301223821502021
:10550000FBF7C0F96420FBF795F9002031490860EA
:105510003AE34FF400613448FCF7ACFA00287FD13D
:1055200020213048FCF7B1FA10212E48FCF7ADFAE3
:1055300080212C48FCF7A9FA40212A48FCF7A5FA5B
:105540004FF400712748FCF7A0FA4FF4807125480A
:10555000FCF79BFAC820FBF76DF9FCF799FA1022CB
:105560002B494FF47000FBF72FFE00BF4FF4700083
:10557000FBF79CFE102221494FF47000FBF7CCFE94
:10558000102223494FF47000FBF71EFE214C04E06B
:105590004FF480710A48FCF778FA201EA4F1010448
:1055A000F6D100BF1C48006800F4E0601B490843C6
:1055B000001D19490860BFF34F8F00BF00BFFEE711
:1055C0000008014000380140002401403000002064
:1055D000320000202C000020880000201C02002047
:1055E000C8030020000C014000100140C4680008FE
:1055F000762A0108EA01002068000020E82B00203C
:105600000C2C002044660008CC130020CE1B002088
:1056100048020020A08601000CED00E00000FA0521
:10562000FFE700F053FE00F077FFFE480068FE49F8
:105630000968401A41F28831884221D3FA4800684B
:105640000844F94908604FF48071F848FCF71DFAE6
:10565000F748C07D00F01000102811D1F448C07D3B
:1056600020F01000F249C875012300223821502093
:10567000FBF708F90223012238215020FBF702F939
:10568000EC480078012802D10020EA49087000F0B7
:105690001DFE00F041FFE3480068E7490968401A31
:1056A000B0F57A7F7ED3E448006800F57A70E2496D
:1056B0000860E2480088401CE0490880E048007823
:1056C00000F0F000402801D1FAF784FFDD480078AF
:1056D00000F0F000402801D1FAF7F2FF002405E0C5
:1056E000D948005D3030D9490855641C032CF7D3E4
:1056F0000020D649085501201F210023D34ACDE9B7
:1057000000101946AA2000F0C7FC002406E0E01CA7
:10571000CD49085C3030CD490855641C032CF6D3C4
:105720000020CA49085502201F210023C74ACDE99D
:1057300000101946AA2000F0AFFCC548008848F6C2
:10574000A04190FBF1F03030C2490873C048008896
:1057500048F6A04190FBF1F201FB12004FF46161A9
:1057600090FBF1F03030BB494873B94800884FF4E2
:10577000616190FBF1F201FB12004FF4167190FB96
:10578000F1F03030B349C874B14800884FF4167155
:1057900090FBF1F201FB12003C2190FBF1F0303064
:1057A000AC4900E037E10875A94800883C2190FB2E
:1057B000F1F201FB12000A2190FBF1F03030A54913
:1057C0000876A34800880A2190FBF1F201FB120041
:1057D0003030A0494876002406E004F10C009D49D1
:1057E000085C9A490855641C022CF6D3002097499E
:1057F000085501201F210023944ACDE900106021A3
:10580000342000F049FC002406E004F11300914923
:10581000085C8E490855641C022CF6D300208B4985
:10582000085501201F210023884ACDE90010982146
:10583000342000F031FC002406E004F11800854912
:10584000085C82490855641C022CF6D300207F496D
:10585000085501201F2100237C4ACDE90010C021FA
:10586000342000F019FC7A48008800280ADD7848C6
:105870000088401E764908804FF400416B48FCF7D1
:1058800004F912E04FF400416848FCF7FCF80020EE
:10589000FBF76AF80120FBF767F80220FBF764F8D2
:1058A000002069490870487088706948408848F647
:1058B000A04190FBF1F0303066490873644840889D
:1058C00048F6A04190FBF1F201FB12004FF4616138
:1058D00090FBF1F030305F4948735D4840884FF4E9
:1058E000616190FBF1F201FB12004FF4167190FB25
:1058F000F1F030305749C874554840884FF416715C
:1059000090FBF1F201FB12003C2190FBF1F03030F2
:10591000504908754E4840883C2190FBF1F201FB4C
:1059200012000A2190FBF1F030304A4908764848CD
:1059300040880A2190FBF1F201FB1200303045490A
:105940004876002406E004F10C004249085C3F4917
:105950000855641C022CF6D300203C49085502204F
:105960001F210023394ACDE900106021342000F0C6
:1059700093FB002406E004F113003649085C334928
:105980000855641C022CF6D300203049085502202B
:105990001F2100232D4ACDE900109821342000F06A
:1059A0007BFB002406E004F118002A49085C274923
:1059B0000855641C022CF6D3002024490855022007
:1059C0001F210023214ACDE90010C021342000F01E
:1059D00063FB1F48408800280ADD4FF480611E48A1
:1059E000FCF753F81A484088401E1949488012E0D5
:1059F0004FF480611848FCF746F80320FAF7B4FF2B
:105A00000420FAF7B1FF0520FAF7AEFF00200E4997
:105A1000C8700871487100F059FC00F07DFD014824
:105A200000681BE02C0000208800002000080140D6
:105A30001C0200208E0100203800002032000020CF
:105A400072000020730000206C000020E82300207A
:105A500068000020EA010020001001404B4909685D
:105A6000401AB0F57A7F0FD34848006800F57A7085
:105A70004649086001201F210023454ACDE9001056
:105A80001946122000F0D4F900F020FC00F044FD8B
:105A90004048006840490968401AB0F57A7F0FD342
:105AA0003D48006800F57A703B49086002201F21DC
:105AB00000233A4ACDE900101946122000F0B8F947
:105AC00000F004FC00F028FD324800683449096801
:105AD000401AB0F5FA6F43D33148006800F5FA6018
